S01700004C43445F616C61726D5F636C6F636B2E7372656363
S11300000C9434000C9451000C9451000C94510045
S11300100C9451000C9451000C9451000C94510018
S11300200C9451000C9451000C9451000C94BD029A
S11300300C9451000C9451000C9451000C945100F8
S11300400C9451000C9451000C9451000C945100E8
S11300500C9451000C9451000C9451000C945100D8
S11300600C9451000C94510011241FBECFEFD8E022
S1130070DEBFCDBF11E0A0E0B1E0E4E9F1E102C0F0
S113008005900D92AC3AB107D9F721E0ACEAB1E0A2
S113009001C01D92A83CB207E1F70E94FE030C9434
S11300A0C8080C94000085B984E08BB98FE19EE404
S11300B00197F1F700C000001BB88FE19EE401979F
S11300C0F1F700C00000089588E30E9453008EE019
S11300D00E94530081E00E94530080E80E94530074
S11300E0089585B985E08BB98FE19EE40197F1F716
S11300F000C0000081E08BB98FE19EE40197F1F725
S113010000C000000895CF93DF93EC018881882319
S113011031F021960E94710089918111FBCFDF910A
S1130120CF9108950F931F93CF93DF938C0180ECAD
S11301300E945300C0E1D0E080E20E947100219748
S1130140D9F780EC0E94530002301105C9F03CF449
S11301500115110559F00130110569F01FC0033074
S1130160110599F004301105A9F018C080E091E060
S11301700E94830013C080E191E00E9483000EC0BE
S11301808DE191E00E94830009C08AE291E00E941F
S1130190830004C087E391E00E948300DF91CF9144
S11301A01F910F9108951F93CF93DF9300D000D038
S11301B0CDB7DEB7009721F0019709F462C0C1C042
S11301C08091C4019091C5018A3091059CF49F935C
S11301D08F9380E491E09F938F93CE0101969F9338
S11301E08F930E94F0050F900F900F900F900F9037
S11301F00F9012C09F938F9381E491E09F938F930C
S1130200CE0101969F938F930E94F0050F900F905B
S11302100F900F900F900F908091C0019091C101A9
S11302208A3091059CF49F938F9380E491E09F938F
S11302308F93CE0103969F938F930E94F0050F90A6
S11302400F900F900F900F900F9012C09F938F9369
S113025081E491E09F938F93CE0103969F938F93B4
S11302600E94F0050F900F900F900F900F900F9039
S11302708091BC019091BD01019709F064C010E523
S113028065C08091BA019091BB018A3091059CF4BC
S11302909F938F9380E491E09F938F93CE01019677
S11302A09F938F930E94F0050F900F900F900F90E3
S11302B00F900F9012C09F938F9381E491E09F93CE
S11302C08F93CE0101969F938F930E94F0050F9018
S11302D00F900F900F900F900F908091B601909116
S11302E0B7018A3091059CF49F938F9380E491E049
S11302F09F938F93CE0103969F938F930E94F00553
S11303000F900F900F900F900F900F9012C09F932B
S11303108F9381E491E09F938F93CE0103969F93F3
S11303208F930E94F0050F900F900F900F900F90F5
S11303300F908091B2019091B301019731F410E5CF
S113034005C011E403C011E401C011E489810E94D5
S113035071008A810E94710084E491E00E9483000C
S1130360CE0103960E948300812F0E9471008DE4C8
S11303700E9471000F900F900F900F90DF91CF911A
S11303801F910895009719F00197A9F0089580919D
S1130390C4019091C5018C30910539F481E090E05D
S11303A09093C5018093C401089501969093C5016B
S11303B08093C40108958091BA019091BB018C305F
S11303C0910539F481E090E09093BB018093BA01E8
S11303D0089501969093BB018093BA010895009704
S11303E019F00197A9F008958091C4019091C50175
S11303F08130910539F48CE090E09093C5018093AD
S1130400C401089501979093C5018093C401089590
S11304108091BA019091BB018130910539F48CE04F
S113042090E09093BB018093BA0108950197909353
S1130430BB018093BA01089581309105E9F08230BF
S1130440910561F1892BB1F58091C0019091C101B1
S11304508B33910559F41092C1011092C001672B9E
S113046049F580E090E00E94C201089501969093BE
S1130470C1018093C00108958091B6019091B701A4
S11304808B33910529F41092B7011092B6010895A7
S113049001969093B7018093B60108958091AE01BF
S11304A09091AF018C3391052CF401969093AF0198
S11304B08093AE01089581309105C1F08230910599
S11304C041F1892B91F58091C0019091C101009770
S11304D039F48BE390E09093C1018093C0010895B7
S11304E001979093C1018093C00108958091B60152
S11304F09091B701009739F48BE390E09093B701A2
S11305008093B601089501979093B7018093B60143
S113051008958091AE019091AF01181619062CF43C
S113052001979093AF018093AE0108958091C20129
S11305309091C3018B33910559F41092C301109229
S1130540C20160E070E080E090E00E941C0205C0FF
S113055001969093C3018093C2018091BE01909152
S1130560BF01892B49F08091AC019091AD010196B6
S11305709093AD018093AC0108951F920F920FB632
S11305800F9211242F933F934F935F936F937F9315
S11305908F939F93AF93BF93EF93FF930E94960221
S11305A0FF91EF91BF91AF919F918F917F916F9147
S11305B05F914F913F912F910F900FBE0F901F901D
S11305C01895009719F0019799F008958091BC014E
S11305D09091BD01892B39F481E090E09093BD01A5
S11305E08093BC0108951092BD011092BC0108953E
S11305F08091B2019091B301892B39F481E090E0AC
S11306009093B3018093B20108951092B3011092B4
S1130610B20108950F931F93CF93DF938C01EB01E5
S113062080EC0E945300C8010E94D300319B1CC07F
S1130630C130D10559F0C230D10581F02097A1F421
S1130640C8010E94C201329919C06EC061E070E015
S1130650C8010E941C02329917C06CC0C8010E94D4
S1130660E102329917C063C0329B1AC0C130D10570
S113067059F0C230D10571F0209791F4C8010E945D
S1130680EF01309917C058C0C8010E945B0230992D
S113069029C052C0C8010E94E10230993BC04CC03D
S11306A0309B4AC0C130D105E9F0C230D10591F187
S11306B0CD2B99F581E00E94530080E80E945300FD
S11306C0012B29F486E491E00E94830004C08EE4A7
S11306D091E00E94830086E591E00E948300C1E0DE
S11306E0D0E02AC081E00E94530080E80E945300B9
S11306F0012B29F486E491E00E94830004C08EE477
S113070091E00E9483008FE591E00E948300C2E0A3
S1130710D0E012C0C3E0D0E00FC01092B501109237
S1130720B401C0E0D0E008C03099C4CF05C030990E
S1130730F1CF02C03099D6CFCE01DF91CF911F9176
S11307400F9108950F931F93CF93DF9300D0CDB7EC
S1130750DEB76CE370E00E94C8058C017F936F9351
S113076081E491E09F938F931F9280E38F930E9483
S1130770F0050F900F900F900F900F900F900A308C
S113078011059CF41F930F9380E491E09F938F9342
S1130790CE0101969F938F930E94F0050F900F90C6
S11307A00F900F900F900F9012C01F930F9381E43E
S11307B091E09F938F93CE0101969F938F930E9414
S11307C0F0050F900F900F900F900F900F9080EC0A
S11307D00E94530080E30E94710084E491E00E942F
S11307E0830089810E9471008A810E9471000F90A8
S11307F00F90DF91CF911F910F9108951092B50141
S11308001092B4018CE090E09093C5018093C401F0
S11308101092C1011092C0011092C3011092C20142
S11308201092BD011092BC018BE090E09093BB014B
S11308308093BA018BE390E09093B7018093B60163
S11308401092B1011092B0011092B3011092B20152
S11308501092AF011092AE011092B9011092B8013A
S11308601092C7011092C6011092AD011092AC0112
S11308701092BF011092BE0178948FEF84B917B81B
S11308808AB90E94640080E090E00E9492008CE0AB
S11308908093810082E080936F0080EA9CE89093CB
S11308A0890080938800E12CF12C00E010E0C0E086
S11308B0D0E00F2EF3E04F2EF02D512C0F2EFBE045
S11308C0AF2EB12CF02D0F2EFBE3CF2ED12CF02D1B
S11308D06894222422F8312C0F2EF5E08F2E912CCF
S11308E0F02D2091BA013091BB018091C401909107
S11308F0C50128173907D9F42091B6013091B70101
S11309008091C0019091C1012817390781F4209189
S1130910B2013091B3018091BC019091BD012817BF
S1130920390729F49092B5018092B40118C08091DE
S1130930B4019091B5018230910509F482C034F478
S1130940009781F0019709F45FC01DC184309105BF
S113095009F4BCC00CF494C0059709F014C1642CCC
S1130960752CDAC0309B2FC0D093B501C093B4016D
S1130970C230D10579F0C330D105A1F0C130D10521
S113098009F0AFCF81E00E94530089E691E00E9414
S11309908300A7CF81E00E94530089E791E00E9481
S11309A083009FCF81E00E9453008DE291E00E947A
S11309B0830080EC0E94530081E090E09093BF019B
S11309C08093BE018ECF319B0BC0C430D10511F092
S11309D0219602C0C0E0D0E0CE010E94920081CFF7
S11309E0329B0AC0209711F0219702C0C22DD32D4B
S11309F0CE010E94920075CF80E80E94530080E0EF
S1130A0090E00E94D3006DCFB80180E090E00E9496
S1130A100A038C01039709F064CF1092B501109278
S1130A20B40181E00E94530080E090E00E94D30072
S1130A3080E090E00E94920000E010E0C0E0D0E08E
S1130A4050CFB70181E090E00E940A037C0193E05B
S1130A50E916F10409F045CF1092B5011092B401E2
S1130A6081E00E94530080E090E00E94D30080E087
S1130A7090E00E949200E12CF12CC0E0D0E031CF54
S1130A800E94A203309B2DCF8091AE019091AF01C3
S1130A90181619060CF025CF1092B5011092B40166
S1130AA081E00E94530080E090E00E94D30080E047
S1130AB090E00E9492001092AD011092AC0110924D
S1130AC0BF011092BE01C0E0D0E00BCF309B0EC03E
S1130AD08091AE019091AF01181619063CF481E0A3
S1130AE090E09093C7018093C601FBCE8091C6012C
S1130AF09091C701892B09F0F4CE319B06C060E0C8
S1130B0070E082E090E00E941C02329BEACE82E018
S1130B1090E00E945B02E5CE81E00E9453002FEF3B
S1130B2081EE94E0215080409040E1F700C0000045
S1130B3089E891E00E94830080EC0E9453008BE9D5
S1130B4091E00E9483002FEF81EE94E021508040D9
S1130B509040E1F700C00000B092BB01A092BA013E
S1130B60D092B701C092B60121E0621A7108A1F6D1
S1130B701092B5011092B40181E00E945300CE019D
S1130B800E949200AECE1092B5011092B401A9CE8B
S1130B9097FB072E16F4009407D077FD09D00E9426
S1130BA0DC0507FC05D03EF4909581959F4F089590
S1130BB0709561957F4F0895AA1BBB1B51E107C037
S1130BC0AA1FBB1FA617B70710F0A61BB70B881FD9
S1130BD0991F5A95A9F780959095BC01CD01089568
S1130BE0AEE0B0E0E6EFF5E00C949F080D891E89B5
S1130BF086E08C831A8309838FEF9FE79E838D831E
S1130C00AE01475E5F4F6F89788DCE0101960E94D9
S1130C1013062F813885F801E20FF31F10822E96F8
S1130C20E4E00C94BB08ACE0B0E0E9E1F6E00C943D
S1130C3091087C016B018A01FC0117821682838171
S1130C4081FFBDC1CE0101964C01F7019381F601EC
S1130C5093FD859193FF81916F01882309F4ABC1C2
S1130C60853239F493FD859193FF81916F0185322B
S1130C7029F4B70190E00E94FB07E7CF512C312CF7
S1130C8020E02032A0F48B3269F030F4803259F045
S1130C90833269F420612CC08D3239F0803339F409
S1130CA0216026C02260246023C0286021C027FD63
S1130CB027C030ED380F3A3078F426FF06C0FAE04A
S1130CC05F9E300D1124532E13C08AE0389E300DE0
S1130CD01124332E20620CC08E3221F426FD6BC108
S1130CE0206406C08C3611F4206802C0883641F4B2
S1130CF0F60193FD859193FF81916F018111C1CF1D
S1130D00982F9F7D9554933028F40C5F1F4FFFE379
S1130D10F9830DC0833631F0833771F0833509F0E0
S1130D205BC022C0F801808189830E5F1F4F442479
S1130D304394512C540115C03801F2E06F0E711C1C
S1130D40F801A080B18026FF03C0652D70E002C0C9
S1130D506FEF7FEFC5012C870E94F0072C01830100
S1130D602C852F77222E17C03801F2E06F0E711CEC
S1130D70F801A080B18026FF03C0652D70E002C099
S1130D806FEF7FEFC5012C870E94E5072C012C85AE
S1130D902068222E830123FC1BC0832D90E048167B
S1130DA05906B0F4B70180E290E00E94FB073A9440
S1130DB0F4CFF50127FC859127FE81915F01B701EE
S1130DC090E00E94FB0731103A94F1E04F1A510869
S1130DD04114510471F7E5C0843611F0893639F5B0
S1130DE0F80127FF07C060817181828193810C5FC4
S1130DF01F4F08C060817181072E000C880B990B6E
S1130E000E5F1F4F2F76722E97FF09C09095809525
S1130E10709561957F4F8F4F9F4F2068722E2AE007
S1130E2030E0A4010E943308A82EA81844C08537D6
S1130E3029F42F7EB22E2AE030E025C0F22FF97F6C
S1130E40BF2E8F36C1F018F4883579F0B4C08037DE
S1130E5019F0883721F0AFC02F2F2061B22EB4FED5
S1130E600DC08B2D8460B82E09C024FF0AC09F2FAB
S1130E709660B92E06C028E030E005C020E130E0DD
S1130E8002C020E132E0F801B7FE07C06081718141
S1130E90828193810C5F1F4F06C06081718180E065
S1130EA090E00E5F1F4FA4010E943308A82EA818DB
S1130EB0FB2DFF777F2E76FE0BC0372D3E7FA514CA
S1130EC050F474FE0AC072FC08C0372D3E7E05C083
S1130ED0BA2C372D03C0BA2C01C0B52C34FF0DC079
S1130EE0FE01EA0DF11D8081803311F4397E09C0C1
S1130EF032FF06C0B394B39404C0832F867809F0FC
S1130F00B39433FD13C030FF06C05A2CB31418F445
S1130F10530C5B18B32CB31468F4B70180E290E06F
S1130F203C870E94FB07B3943C85F5CFB31410F4BF
S1130F303B1801C0312C34FF12C0B70180E390E0AC
S1130F403C870E94FB073C8532FF17C031FD03C07C
S1130F5088E790E002C088E590E0B7010CC0832FD9
S1130F60867859F031FF02C08BE201C080E237FD80
S1130F708DE2B70190E00E94FB07A51438F4B70195
S1130F8080E390E00E94FB075A94F7CFAA94F401FF
S1130F90EA0DF11D8081B70190E00E94FB07A110CA
S1130FA0F5CF332009F451CEB70180E290E00E94DE
S1130FB0FB073A94F6CFF7018681978102C08FEF41
S1130FC09FEF2C96E2E10C94AD08FC010590615072
S1130FD070400110D8F7809590958E0F9F1F08954B
S1130FE0FC016150704001900110D8F780959095F4
S1130FF08E0F9F1F08950F931F93CF93DF93FB01D1
S1131000238121FD03C08FEF9FEF28C022FF16C06C
S113101046815781248135814217530744F4A081C6
S1131020B1819D012F5F3F4F318320838C932681B3
S113103037812F5F3F4F3783268310C0EB01092F81
S1131040182F0084F185E02D0995892BE1F68E8116
S11310509F8101969F838E83812F902FDF91CF9163
S11310601F910F910895FA01AA27283051F12031D8
S113107081F1E8946F936E7F6E5F7F4F8F4F9F4F28
S1131080AF4FB1E03ED0B4E03CD0670F781F891F6A
S11310909A1FA11D680F791F8A1F911DA11D6A0F38
S11310A0711D811D911DA11D20D009F468943F91EB
S11310B02AE0269F11243019305D3193DEF6CF01EA
S11310C00895462F4770405D4193B3E00FD0C9F7B0
S11310D0F6CF462F4F70405D4A3318F0495D31FD1D
S11310E04052419302D0A9F7EACFB4E0A695979570
S11310F0879577956795BA95C9F700976105710546
S113110008959B01AC010A2E06945795479537958F
S11311102795BA95C9F7620F731F841F951FA01DE9
S113112008952F923F924F925F926F927F928F9287
S11311309F92AF92BF92CF92DF92EF92FF920F9362
S11311401F93CF93DF93CDB7DEB7CA1BDB0B0FB66C
S1131150F894DEBF0FBECDBF09942A883988488829
S11311605F846E847D848C849B84AA84B984C884BF
S1131170DF80EE80FD800C811B81AA81B981CE0FB6
S1131180D11D0FB6F894DEBF0FBECDBFED0108959B
S1071190F894FFCFFD
S11311944D435520436C6F636B2D474726544800D9
S11311A42D3E20436C6F636B20536574002D3E20E9
S11311B4416C61726D20536574002D3E2053746F2D
S11311C4707761746368002D3E2054696D65720004
S11311D4302569003A00436C6F636B3A2000416C1C
S11311E461726D3A2000736574206D696E730073C7
S11311F4657420414D2F504D00436C6F636B3A204E
S113120473657420686F757200416C61726D3A2065
S113121473657420686F7572002121212121214195
S11312246C61726D212121212121002A212A212A84
S10F1234212A212A212A212A212A210012
S9030000FC
